:020000007E2F51
:10000800FF00030E83018316D8000A08D7008A016F
:1000180070088312A4007108A3007208A200730874
:10002800A1008B1C1C2801308316A8000030A900F1
:10003800712770080319382878276208F0006308C8
:10004800F1006408F2006508F300F00A0319F10AE8
:100058000319F20A0319F30A7008E2007108E300B1
:100068007208E4007308E5002408F0002308F10092
:100078002208F2002108F300831657088A00580E58
:080088008300FF0E7F0E09004A
:0E009000F201F101F001F801F3010030080067
:10009E007B15FB1F59280130F300F201F101F0012D
:0800AE00FA0DF20CFF3008000E
:0800B600FA1FF21300300800EC
:1000BE00FB14FB1F6928FF30F300F200F100F00083
:0800CE00FA0DF20CFF300800EE
:1000D60083120313FB01FA01F9018030F800F10CD9
:1000E600F00C031C7F287408F90775080318750FB0
:1000F600FA070318FB0A0310F01F87287408FA078B
:1001060075080318750FFB07FB0CFA0CF90CF80CB5
:10011600031C72287B08F3007A08F2007908F100C4
:060126007808F00008005B
:10012C0083120313F8010830FC00700DF80D7408ED
:10013C00F8020318A328F8070310F00DFC0B9B28FA
:02014C000800A9
:10014E000E3083120313FD00FD0BAB2800000800D8
:0E015E00831603135A088A005908820008000D
:10016C00831203172A08F2007208F100F20A2B0816
:10017C00F000AB0A700884000008F00071088400DD
:10018C00700880007108840000080319CE28BA2872
:06019C002A08F000080033
:1001A200A0017208031DE6287108F2007008F10030
:1001B200F001A0157208031DE6287108F200F10192
:1001C200A011201672080319F4282008F302031D57
:1001D200031CF8280310F21BFC28F00DF10DF20DA0
:1001E200F30BEC28F8280130FC004820FF280230ED
:0E01F200FC004F20FF280430FC005B200800BA
:1002000083120313FB017308031D77080319572991
:1002100072087606FA007708F3077E30031C14296B
:10022000F30203185A291729F302031C5D297208E7
:10023000F8007108FC007008FD00F817F6170310AD
:10024000F201F101F0011830A0007D1C3129740881
:10025000F00775080318750FF10776080318760F75
:10026000F207F20CF10CF00CF80CFC0CFD0C031076
:10027000A00B2529F21B4129F80DF00DF10DF20D0F
:10028000F3037B1B701C5329F81F5329F00A031931
:10029000F10A0319F20A031D5329F20CF10CF00CB8
:1002A000F30A03195A29FA1FF21300305F290130AB
:1002B00048205F2902305F205F2904304F20000072
:0202C000080034
:0602C200FB15FF300800EF
:1002C80083120313FA017308031D7A147708031DB8
:1002D800FA147A080319B029033A03197B297A1802
:1002E8007829F61FAE29AC29F21FAC29AE2972086D
:1002F8008039FA00F21376088039F6137A06031962
:1003080089297A080319AC29AE29770873020319D9
:100318009029031CA429A829760872020319972991
:10032800031CA429A8297508710203199E29031C16
:10033800A429A829740870020319B0290318A82948
:10034800FA080319AE29AC29FA080319AC29AE2911
:10035800031408000310080003140315080008001C
:10036800831203139F01C0309F0483161F179F1722
:10037800831203171D08F000F00D7010F00D7010B7
:10038800F00D7010700803139F041F14A7201F1589
:100398001F1DD0290000CC291F101E08F100F001F4
:0C03A80083161E08F0040030F104080069
:1003B400831203137008F8007108F000F101F201D0
:1003C400F301FB01FC019630F300FA017008F1001F
:0C03D4007808F000F801F201D1200800C8
:1003E000831603139818F6290000F02983120317C7
:0803F0001D0803139900080029
:1003F800831203179E0180301E06F0008030043AF5
:10040800700203182E2A0530F0000030F1001E0893
:10041800F4000030F41BFF30F5006B20C530F00706
:1004280007300318013EF1070430F0070318F10AFA
:1004380070088316D9007108DA00AF208A110A12F1
:10044800F1007108831203171D0203182C2A2E2AA3
:0A0458009E0AFF291E08F0000800AC
:1004620083120317A801A9011D08A4001E08A500F4
:100472001F08A6002008A7002708FF3A031D4B2AE1
:100482002608FF3A031D4B2A2508FF3A031D4B2A73
:100492002408FF3A031D552A2108AA006C30AB003C
:1004A200B6200330F000322C0130A200A61F642ACD
:1004B20080302606F0007008A600A20A21088400F7
:1004C2002D308000A10A0030F0002706031D732A98
:1004D20070082606031D732A70082506031D732A59
:1004E2002408003A031D7C2A2108AA006A30AB00C6
:1004F200B620F001322C2708FF3A031D8A2A26086B
:10050200003A031D8A2A2508003A031D8A2A240874
:10051200003A031D942A2108AA006630AB00B620D7
:100522002208F000322C0030F4000030F5000030D8
:10053200F6007F30F7002408F0002508F1002608B5
:10054200F2002708F3006421013003180030F000A4
:1005520070080319C92A03172408F0002508F100BE
:100562002608F2002708F3000030F4000030F500FE
:100572002030F6008230F700002170080317A40033
:100582007108A5007208A6007308A700A903942A9F
:1005920003170030F4000030F5002030F6008230FE
:1005A200F7002408F0002508F1002608F2002708C9
:1005B200F30064210130031C0030F00070080319BD
:1005C200FF2A03172408F0002508F1002608F2008C
:1005D2002708F300CD30F400CC30F5004C30F600A3
:1005E2007B30F700002170080317A4007108A500F2
:1005F2007208A6007308A700A90AC92A0317FF30C8
:100602002405F800FF302505F9007F302605FA00A1
:1006120000302705FB007808F4007908F5007A0815
:10062200F6007B08F700F40DF50DF60DF70D7410CA
:1006320000302405F00000302505F10000302605C9
:10064200F200FF302705F3007008A4007108A5002E
:100652007208A6007308A70074082404F000750845
:100662002504F10076082604F20077082704F30037
:100672007008A4007108A5007208A6007308A700FC
:100682007F302702F0007008A3000130A700700835
:10069200F4002408F0002508F1002608F2002708DB
:1006A200F300740803195C2BF00DF10DF20DF30D3C
:1006B2007010FF3E532B7008A4007108A500720849
:1006C200A6007308A7002708303EF0002108840026
:1006D20070088000A10A80302906F0008030013ABB
:1006E2007002031C7D2B8030063AF0008030290610
:1006F2007002031C7D2B842B210884002E30800085
:10070200A10A0130A8000630A3002308003A031909
:10071200E22BA7012408F0002508F1002608F200C8
:100722002708F300F00DF10DF20DF30D7010F00D2E
:10073200F10DF20DF30D70102408F00725080318CF
:10074200250FF10726080318260FF20727080318BA
:10075200270FF3077008A4007108A5007208A6000D
:100762007308A7002408F0002508F1002608F2000B
:100772002708F300F00DF10DF20DF30D7010700863
:10078200A4007108A5007208A6007308A700270834
:10079200303EF0002108840070088000A10A280879
:1007A200003A031DE02BA9032908003A031DE02BA0
:1007B200210884002E308000A10A0130A800A30382
:1007C200862BFF30210784000008303A031DEB2BF3
:1007D200A103E22BFF302107840000082E3A031DFB
:1007E200F32BA1032908003A03192E2C21088400B7
:1007F20065308000A10A80302906F0008030003A7E
:10080200700203180C2C210884002D308000A10AEC
:100812002908003CA9002908A3002908093C03185B
:100822001F2C0A30F4002308F00096203030F00725
:1008320003172108840070088000A10A0A30F4001E
:100842002308F00096207808F0003030F0070317F4
:100852002108840070088000A10A21088400800118
:04086200F001080099
:10086600831203137408003A031D4E2C7508003AD0
:10087600031D4E2C7608003A031D4E2C7708003ACD
:10088600031D4E2CFF30F000FF30F1007F30F200E8
:10089600FF30F300E92C8312031377080319DD2CCC
:1008A60073080319E02C720876068039FA00F217ED
:1008B600F617A0017208F8007108FC007008FD0028
:1008C6007408FD027508031C750FFC027608031CEC
:1008D600760FF802F801FC01FD01031C792C0310C8
:1008E600F20CF10CF00CF80C0130A0007708F302C2
:1008F600031C832C7E302007F3070318E32C882C77
:100906007E302007F307031CE62C1830FA07FD0D8E
:10091600FC0DF80DF00DF10DF20DA00D7408F002AE
:100926007508031C750FF1027608031C760FF20298
:10093600760DA004201CA12C7D14AC2C7408F007A5
:1009460075080318750FF10776080318760AF2077B
:100956007D10FA031F307A05031D8A2C7B1B7D1C34
:10096600D32C0310F00DF10DF20DA00D7408F0025A
:100976007508031C750FF1027608031C760FF20248
:10098600760D20040139FD070318FC0A0319F80A3D
:10099600031DD32CF80CFC0CFD0CF30A0319E32CF5
:1009A600FA1FF8137808F2007C08F1007D08F000C1
:1009B6000030E82C01306121E82C02304820E82C78
:0E09C60004305F20E82C08304F2000000800AD
:1009D400831203179B011908840000089A001A085F
:1009E400003A0319002D1A089D00F02103179B0AF1
:0E09F4001B081907840000089A00F12C080067
:100A0200831203179A019B011908F2001908F300D7
:100A1200720884000008203A031D142D1A081B04D2
:100A2200031D142D212D01309A0000309B00720805
:100A320084000008F0007308840070088000F30A44
:100A42007208F100F20A710884000008003A031DDE
:080A5200092D1908F00008004D
:100A5A00831203179B0119089D00FC2170089A0054
:100A6A000030F1000530F4000030F5006B20C5308D
:100A7A00F00707300318013EF1070330F0070318A7
:100A8A00F10A70088316D9007108DA00AF208A11BA
:100A9A000A12F00070088312031799020530F00059
:100AAA000030F1001A08F400F5016B20C530F00798
:100ABA0007300318013EF107F00A0319F10A70081A
:100ACA008316D9007108DA00AF208A110A12F300DE
:100ADA00831203171908F2000130F0000030F10008
:100AEA00720803197D2DF00DF10D7010FF3E762D61
:100AFA007308840070080005F30000307105F400E3
:100B0A001908F2007308F0007408F100720803195A
:100B1A00952DF10CF00CF113711BF117FF3E8C2D82
:100B2A00700803199B2D01309B009C2D9B011B080B
:040B3A00F0000800BF
:100B3E00831203171908F2001B081C040319C22D97
:100B4E0001309B02031C9C037208F100F20A1A0882
:100B5E00F0009A0A700884000008F0007108840002
:100B6E0070088000710884000008F0007008031DF2
:100B7E00C12DC22DA32D1B08F0001C08F100013061
:100B8E009B02031C9C03700871040319D32D720879
:0E0B9E0084008001F20AC22D1908F000080040
:100BAC00831203179D01B4217008ED007108EE004B
:100BBC00DA21CD30F400CC30F5000C30F60080306A
:100BCC00F70000217008031790007108910072085B
:100BDC009200730893000030F4000030F5000030F0
:100BEC00F6008930F7003324700803179000710861
:100BFC00910072089200730893000030F4000030EA
:100C0C00F5004830F6008530F70000217008031716
:100C1C00900071089100720892007308930070089C
:100C2C009D0071089E0072089F007308A000DE30C2
:060C3C00A10031220800B6
:100C4200D625183099002D257008013A031D322E41
:100C5200AA30990030309A000F309B0000309C007F
:100C62009F25183099002D257008003A031D422E49
:100C7200AA30990025309A000F309B0000309C006A
:100C82009F25083099002D257008013A031D522E28
:100C9200B93099004C309A001E309B0000309C0005
:100CA2009F25083099002D257008003A031D622EF9
:100CB200B93099003A309A001E309B0000309C00F7
:100CC2009F25AA3099000125B93099000125DE300F
:100CD20099000125AA309900EA24A4309900EA2457
:100CE200B9309900EA24A0309900EA24DE30990054
:100CF200EA240A309D00F0210D3003179D00F021F7
:020D02000800E7
:100D04008312031716089D00FC2170089800003018
:100D1400F1000530F4000030F5006B20C530F00719
:100D240007300318013EF1070330F0070318F10AF6
:100D340070088316D9007108DA00AF208A110A12EC
:100D4400F00070088312031796021708013A031D76
:100D5400DB2E0530F0000030F1001808F400F50136
:100D64006B20C530F00707300318013EF107F00A85
:100D74000319F10A70088316D9007108DA00AF204C
:100D84008A110A12F200831203171608F1000130C7
:100D9400F00071080319D22EF00D7010FF3ECC2E16
:100DA400720884000008F00472088400700880004F
:100DB4000B2F0530F0000030F1001808F400F501A5
:100DC4006B20C530F00707300318013EF107F00A25
:100DD4000319F10A70088316D9007108DA00AF20EC
:100DE4008A110A12F200831203171608F100013067
:100DF400F00071080319022FF00D7010FF3EFC2E55
:100E0400F009720884000008F00572088400700874
:040E14008000080052
:100E18008316031398169030831298008316871749
:100E2800071383128C1E1B2F1A08F000152F0800B9
:100E3800183083120317960001309700822600307D
:100E480003136106031D2A2F01306006031D2D2F91
:100E58002126E001E1010330FB008A30FC00553017
:100E6800FD00FD0B352FFC0B352FFB0B352F00003C
:100E78000000183003179600970182268B108316FE
:080E88000313A801A9010800F1
:100E9000FF3083160313DB00FF30DC00FF30DD0082
:100EA000FF3083129F01C0309F0483161F179F17C6
:060EB00083121F1408006C
:100EB6008530831603138100633083128100A030CE
:040EC6008B00080095
:100ECA00AF208A110A128000840AD90A0319DA0AA1
:080EDA00F003031D652F080061
:0E0EE20000300B19013083120313F0000800DA
:0C0EF0000B116330831203138100080013
:100EFC00E4275B27183003179400013095008A15FE
:100F0C0000208A11183096009701822694019501D1
:100F1C008A1500208A114827053083169F0033302C
:100F2C00990018150C27003083162906031DA02FD5
:100F3C0001302806031DA52F8B131C278B1700309F
:100F4C00F00083126506031DB52F70086406031D9F
:100F5C00B52F01306306031DB52F62082C3A031D13
:100F6C00BE2F8B132126E201E301E401E5018B176F
:040F7C00992FBF2FBB
:100FC800253084004B3083120313F00095308316CC
:100FD800D9000830DA006527A03084000A3083126F
:100FE800F000D9308316D9000730DA0065270800E9
:101000008312031714089D008A11FC218A157008A9
:1010100083160313EF000030F1000530F4000030B8
:10102000F5008A116B208A15C530F00707300318C8
:10103000013EF1070330F0070318F10A7008831628
:10104000D9007108DA008A11AF208A150A12F0005F
:1010500070088312031794021508013A031D6328D0
:101060000530F0000030F100831603136F08F40020
:10107000F5018A116B208A15C530F0070730031877
:10108000013EF10770088316D9007108DA008A1151
:10109000AF208A150A12F200831203171408F10018
:1010A0000130F000710803195928F00D7010FF3E4F
:1010B0005328F009720884000008F00572088400C3
:1010C0007008800094280530F0000030F10083168D
:1010D00003136F08F400F5018A116B208A15C530DF
:1010E000F00707300318013EF10770088316D90096
:1010F0007108DA008A11AF208A150A12F2008312F1
:1011000003171408F1000130F000710803198C284E
:10111000F00D7010FF3E8628720884000008F0046D
:0A11200072088400700880000800C7
:100F8A008534053400340034083486340634003499
:100F9A000834103487340734003410341834883451
:080FAA0008340034183420342F
:080FB200203420342034003407
:080FBA002034203420340034FF
:040FC20000340034C3
:10112A004C344534443420346934643420344F34E4
:06113A0046344634003487
:101140004C344534443420346934643420344F34CE
:041150004E340034E5
:1011540053347734693474346334683420346934F0
:1011640073342034503472346534733473346534D6
:0411740064340034AB
:1011780053347734693474346334683420346934CC
:1011880073342034523465346C34653461347334C8
:08119800653464342034003496
:0411A00001340034E2
:0811A400003400340034003473
:0811AC0049344E34463400348E
:0411B400303400349F
:0811B8004E3461344E34003462
:02400E004A2F37
:00000001FF
